{
  "_format": "hh-sol-artifact-1",
  "contractName": "LinkDropTest",
  "sourceName": "contracts/LinkDropTest.sol",
  "abi": [
    {
      "inputs": [
        {
          "internalType": "address",
          "name": "_token",
          "type": "address"
        },
        {
          "internalType": "address payable",
          "name": "_client",
          "type": "address"
        },
        {
          "internalType": "uint256",
          "name": "_duration",
          "type": "uint256"
        },
        {
          "internalType": "uint256",
          "name": "_cost",
          "type": "uint256"
        },
        {
          "internalType": "uint256",
          "name": "_num",
          "type": "uint256"
        },
        {
          "internalType": "string",
          "name": "_campaignID",
          "type": "string"
        }
      ],
      "stateMutability": "nonpayable",
      "type": "constructor"
    },
    {
      "inputs": [],
      "name": "addLink",
      "outputs": [],
      "stateMutability": "nonpayable",
      "type": "function"
    },
    {
      "inputs": [
        {
          "internalType": "uint256",
          "name": "_id",
          "type": "uint256"
        },
        {
          "internalType": "uint256",
          "name": "_balance",
          "type": "uint256"
        },
        {
          "internalType": "address",
          "name": "_user",
          "type": "address"
        },
        {
          "internalType": "bytes",
          "name": "_signature",
          "type": "bytes"
        }
      ],
      "name": "airdrop",
      "outputs": [],
      "stateMutability": "nonpayable",
      "type": "function"
    },
    {
      "inputs": [],
      "name": "campaignID",
      "outputs": [
        {
          "internalType": "string",
          "name": "",
          "type": "string"
        }
      ],
      "stateMutability": "view",
      "type": "function"
    },
    {
      "inputs": [],
      "name": "cancelCampaign",
      "outputs": [],
      "stateMutability": "nonpayable",
      "type": "function"
    },
    {
      "inputs": [],
      "name": "client",
      "outputs": [
        {
          "internalType": "address payable",
          "name": "",
          "type": "address"
        }
      ],
      "stateMutability": "view",
      "type": "function"
    },
    {
      "inputs": [],
      "name": "cost",
      "outputs": [
        {
          "internalType": "uint256",
          "name": "",
          "type": "uint256"
        }
      ],
      "stateMutability": "view",
      "type": "function"
    },
    {
      "inputs": [],
      "name": "costPerNum",
      "outputs": [
        {
          "internalType": "uint256",
          "name": "",
          "type": "uint256"
        }
      ],
      "stateMutability": "view",
      "type": "function"
    },
    {
      "inputs": [],
      "name": "createMultipleLinks",
      "outputs": [],
      "stateMutability": "nonpayable",
      "type": "function"
    },
    {
      "inputs": [],
      "name": "duration",
      "outputs": [
        {
          "internalType": "uint256",
          "name": "",
          "type": "uint256"
        }
      ],
      "stateMutability": "view",
      "type": "function"
    },
    {
      "inputs": [],
      "name": "endTime",
      "outputs": [
        {
          "internalType": "uint256",
          "name": "",
          "type": "uint256"
        }
      ],
      "stateMutability": "view",
      "type": "function"
    },
    {
      "inputs": [
        {
          "internalType": "uint256",
          "name": "_fundingAmount",
          "type": "uint256"
        }
      ],
      "name": "fundContract",
      "outputs": [],
      "stateMutability": "nonpayable",
      "type": "function"
    },
    {
      "inputs": [],
      "name": "generatedLinkCount",
      "outputs": [
        {
          "internalType": "uint256",
          "name": "",
          "type": "uint256"
        }
      ],
      "stateMutability": "view",
      "type": "function"
    },
    {
      "inputs": [],
      "name": "getLinks",
      "outputs": [
        {
          "components": [
            {
              "internalType": "string",
              "name": "campaignID",
              "type": "string"
            },
            {
              "internalType": "uint256",
              "name": "id",
              "type": "uint256"
            },
            {
              "internalType": "uint256",
              "name": "balance",
              "type": "uint256"
            },
            {
              "internalType": "address",
              "name": "pubwallet",
              "type": "address"
            },
            {
              "internalType": "bool",
              "name": "taken",
              "type": "bool"
            },
            {
              "internalType": "uint256",
              "name": "time",
              "type": "uint256"
            },
            {
              "internalType": "bytes32",
              "name": "puzzle",
              "type": "bytes32"
            }
          ],
          "internalType": "struct LinkDropTest.Link[]",
          "name": "",
          "type": "tuple[]"
        }
      ],
      "stateMutability": "view",
      "type": "function"
    },
    {
      "inputs": [
        {
          "internalType": "uint256",
          "name": "nu",
          "type": "uint256"
        }
      ],
      "name": "getLinksByIndexFromValidator",
      "outputs": [
        {
          "internalType": "bool",
          "name": "",
          "type": "bool"
        }
      ],
      "stateMutability": "view",
      "type": "function"
    },
    {
      "inputs": [],
      "name": "getLinksFromValidator",
      "outputs": [
        {
          "internalType": "bool[]",
          "name": "",
          "type": "bool[]"
        }
      ],
      "stateMutability": "view",
      "type": "function"
    },
    {
      "inputs": [],
      "name": "initialSupply",
      "outputs": [
        {
          "internalType": "uint256",
          "name": "",
          "type": "uint256"
        }
      ],
      "stateMutability": "view",
      "type": "function"
    },
    {
      "inputs": [
        {
          "internalType": "uint256",
          "name": "nuu",
          "type": "uint256"
        },
        {
          "internalType": "bytes",
          "name": "signature",
          "type": "bytes"
        }
      ],
      "name": "isValidSignature",
      "outputs": [
        {
          "internalType": "bool",
          "name": "",
          "type": "bool"
        }
      ],
      "stateMutability": "view",
      "type": "function"
    },
    {
      "inputs": [],
      "name": "linkCount",
      "outputs": [
        {
          "internalType": "uint256",
          "name": "",
          "type": "uint256"
        }
      ],
      "stateMutability": "view",
      "type": "function"
    },
    {
      "inputs": [
        {
          "internalType": "uint256",
          "name": "",
          "type": "uint256"
        }
      ],
      "name": "links",
      "outputs": [
        {
          "internalType": "string",
          "name": "campaignID",
          "type": "string"
        },
        {
          "internalType": "uint256",
          "name": "id",
          "type": "uint256"
        },
        {
          "internalType": "uint256",
          "name": "balance",
          "type": "uint256"
        },
        {
          "internalType": "address",
          "name": "pubwallet",
          "type": "address"
        },
        {
          "internalType": "bool",
          "name": "taken",
          "type": "bool"
        },
        {
          "internalType": "uint256",
          "name": "time",
          "type": "uint256"
        },
        {
          "internalType": "bytes32",
          "name": "puzzle",
          "type": "bytes32"
        }
      ],
      "stateMutability": "view",
      "type": "function"
    },
    {
      "inputs": [],
      "name": "num",
      "outputs": [
        {
          "internalType": "uint256",
          "name": "",
          "type": "uint256"
        }
      ],
      "stateMutability": "view",
      "type": "function"
    },
    {
      "inputs": [],
      "name": "pauseCampaign",
      "outputs": [],
      "stateMutability": "nonpayable",
      "type": "function"
    },
    {
      "inputs": [],
      "name": "randomString",
      "outputs": [
        {
          "internalType": "string",
          "name": "",
          "type": "string"
        }
      ],
      "stateMutability": "view",
      "type": "function"
    },
    {
      "inputs": [],
      "name": "runCampaign",
      "outputs": [],
      "stateMutability": "nonpayable",
      "type": "function"
    },
    {
      "inputs": [],
      "name": "running",
      "outputs": [
        {
          "internalType": "bool",
          "name": "",
          "type": "bool"
        }
      ],
      "stateMutability": "view",
      "type": "function"
    },
    {
      "inputs": [],
      "name": "startTime",
      "outputs": [
        {
          "internalType": "uint256",
          "name": "",
          "type": "uint256"
        }
      ],
      "stateMutability": "view",
      "type": "function"
    },
    {
      "inputs": [],
      "name": "token",
      "outputs": [
        {
          "internalType": "contract IERC20",
          "name": "",
          "type": "address"
        }
      ],
      "stateMutability": "view",
      "type": "function"
    },
    {
      "inputs": [],
      "name": "validator",
      "outputs": [
        {
          "internalType": "address",
          "name": "",
          "type": "address"
        }
      ],
      "stateMutability": "view",
      "type": "function"
    }
  ],
  "bytecode": "0x60806040523480156200001157600080fd5b506040516200354a3803806200354a8339818101604052810190620000379190620004e3565b85600e60006101000a81548173ffffffffffffffffffffffffffffffffffffffff021916908373ffffffffffffffffffffffffffffffffffffffff16021790555084600460006101000a81548173ffffffffffffffffffffffffffffffffffffffff021916908373ffffffffffffffffffffffffffffffffffffffff1602179055508260098190555082600a8190555081600b819055508183620000dc9190620005fc565b600c8190555033600560006101000a81548173ffffffffffffffffffffffffffffffffffffffff021916908373ffffffffffffffffffffffffffffffffffffffff16021790555080600690805190602001906200013b929190620001b1565b506018603c80866200014e919062000634565b6200015a919062000634565b62000166919062000634565b6002819055504260018190555060025460015462000185919062000695565b60038190555060016000806101000a81548160ff02191690831515021790555050505050505062000756565b828054620001bf9062000721565b90600052602060002090601f016020900481019282620001e357600085556200022f565b82601f10620001fe57805160ff19168380011785556200022f565b828001600101855582156200022f579182015b828111156200022e57825182559160200191906001019062000211565b5b5090506200023e919062000242565b5090565b5b808211156200025d57600081600090555060010162000243565b5090565b6000604051905090565b600080fd5b600080fd5b600073ffffffffffffffffffffffffffffffffffffffff82169050919050565b6000620002a28262000275565b9050919050565b620002b48162000295565b8114620002c057600080fd5b50565b600081519050620002d481620002a9565b92915050565b6000620002e78262000275565b9050919050565b620002f981620002da565b81146200030557600080fd5b50565b6000815190506200031981620002ee565b92915050565b6000819050919050565b62000334816200031f565b81146200034057600080fd5b50565b600081519050620003548162000329565b92915050565b600080fd5b600080fd5b6000601f19601f8301169050919050565b7f4e487b7100000000000000000000000000000000000000000000000000000000600052604160045260246000fd5b620003af8262000364565b810181811067ffffffffffffffff82111715620003d157620003d062000375565b5b80604052505050565b6000620003e662000261565b9050620003f48282620003a4565b919050565b600067ffffffffffffffff82111562000417576200041662000375565b5b620004228262000364565b9050602081019050919050565b60005b838110156200044f57808201518184015260208101905062000432565b838111156200045f576000848401525b50505050565b60006200047c6200047684620003f9565b620003da565b9050828152602081018484840111156200049b576200049a6200035f565b5b620004a88482856200042f565b509392505050565b600082601f830112620004c857620004c76200035a565b5b8151620004da84826020860162000465565b91505092915050565b60008060008060008060c087890312156200050357620005026200026b565b5b60006200051389828a01620002c3565b96505060206200052689828a0162000308565b95505060406200053989828a0162000343565b94505060606200054c89828a0162000343565b93505060806200055f89828a0162000343565b92505060a087015167ffffffffffffffff81111562000583576200058262000270565b5b6200059189828a01620004b0565b9150509295509295509295565b7f4e487b7100000000000000000000000000000000000000000000000000000000600052601260045260246000fd5b7f4e487b7100000000000000000000000000000000000000000000000000000000600052601160045260246000fd5b600062000609826200031f565b915062000616836200031f565b9250826200062957620006286200059e565b5b828204905092915050565b600062000641826200031f565b91506200064e836200031f565b9250817fffffffffffffffffffffffffffffffffffffffffffffffffffffffffffffffff04831182151516156200068a5762000689620005cd565b5b828202905092915050565b6000620006a2826200031f565b9150620006af836200031f565b9250827fffffffffffffffffffffffffffffffffffffffffffffffffffffffffffffffff03821115620006e757620006e6620005cd565b5b828201905092915050565b7f4e487b7100000000000000000000000000000000000000000000000000000000600052602260045260246000fd5b600060028204905060018216806200073a57607f821691505b60208210810362000750576200074f620006f2565b5b50919050565b612de480620007666000396000f3fe608060405234801561001057600080fd5b50600436106101a95760003560e01c80634e70b1dc116100f9578063b78605b211610097578063deb456da11610071578063deb456da14610436578063f293cd3114610466578063f66ddcbb14610470578063fc0c546a1461048e576101a9565b8063b78605b2146103de578063bafcd678146103fa578063d85bd52614610418576101a9565b8063980e7844116100d3578063980e7844146103685780639ae6c81014610372578063aac4767914610390578063b2af9362146103ae576101a9565b80634e70b1dc146102f657806378e9792514610314578063881d8a4014610332576101a9565b80633197cbb61161016657806339f8ddbf1161014057806339f8ddbf146102925780633a5381b51461029c57806342317f95146102ba57806349ed2fa9146102d8576101a9565b80633197cbb61461023a5780633519a2f814610258578063378dc3dc14610274576101a9565b80630c55b877146101ae5780630d10f3b5146101b85780630fb5a6b4146101c2578063109e94cf146101e057806312eeb88b146101fe57806313faede61461021c575b600080fd5b6101b66104ac565b005b6101c06104d7565b005b6101ca610583565b6040516101d79190611d18565b60405180910390f35b6101e8610589565b6040516101f59190611d74565b60405180910390f35b6102066105af565b6040516102139190611e59565b60405180910390f35b610224610701565b6040516102319190611d18565b60405180910390f35b610242610707565b60405161024f9190611d18565b60405180910390f35b610272600480360381019061026d9190611eb1565b61070d565b005b61027c610843565b6040516102899190611d18565b60405180910390f35b61029a610849565b005b6102a4610a7c565b6040516102b19190611eff565b60405180910390f35b6102c2610aa2565b6040516102cf9190611d18565b60405180910390f35b6102e0610aa8565b6040516102ed9190611fb3565b60405180910390f35b6102fe610b36565b60405161030b9190611d18565b60405180910390f35b61031c610b3c565b6040516103299190611d18565b60405180910390f35b61034c60048036038101906103479190611eb1565b610b42565b60405161035f9796959493929190611ffd565b60405180910390f35b610370610c39565b005b61037a610e49565b6040516103879190611d18565b60405180910390f35b610398610e4f565b6040516103a59190611d18565b60405180910390f35b6103c860048036038101906103c391906120d8565b610e55565b6040516103d59190612138565b60405180910390f35b6103f860048036038101906103f3919061217f565b610f25565b005b6104026111e6565b60405161040f9190611fb3565b60405180910390f35b610420611274565b60405161042d9190612138565b60405180910390f35b610450600480360381019061044b9190611eb1565b611285565b60405161045d9190612138565b60405180910390f35b61046e611342565b005b6104786113ee565b60405161048591906123dc565b60405180910390f35b61049661166f565b6040516104a3919061245d565b60405180910390f35b60005b600b548110156104d4576104c1610849565b80806104cc906124a7565b9150506104af565b50565b600460009054906101000a900473ffffffffffffffffffffffffffffffffffffffff1673ffffffffffffffffffffffffffffffffffffffff163373ffffffffffffffffffffffffffffffffffffffff1614610567576040517f08c379a000000000000000000000000000000000000000000000000000000000815260040161055e9061253b565b60405180910390fd5b60008060006101000a81548160ff021916908315150217905550565b60025481565b600460009054906101000a900473ffffffffffffffffffffffffffffffffffffffff1681565b6060600560009054906101000a900473ffffffffffffffffffffffffffffffffffffffff1673ffffffffffffffffffffffffffffffffffffffff163373ffffffffffffffffffffffffffffffffffffffff1614610641576040517f08c379a0000000000000000000000000000000000000000000000000000000008152600401610638906125a7565b60405180910390fd5b600060085467ffffffffffffffff81111561065f5761065e6125c7565b5b60405190808252806020026020018201604052801561068d5781602001602082028036833780820191505090505b50905060005b6008548110156106f9576007600082815260200190815260200160002060030160149054906101000a900460ff168282815181106106d4576106d36125f6565b5b60200260200101901515908115158152505080806106f1906124a7565b915050610693565b508091505090565b60095481565b60035481565b600460009054906101000a900473ffffffffffffffffffffffffffffffffffffffff1673ffffffffffffffffffffffffffffffffffffffff163373ffffffffffffffffffffffffffffffffffffffff161461079d576040517f08c379a00000000000000000000000000000000000000000000000000000000081526004016107949061253b565b60405180910390fd5b600e60009054906101000a900473ffffffffffffffffffffffffffffffffffffffff1673ffffffffffffffffffffffffffffffffffffffff166323b872dd3330846040518463ffffffff1660e01b81526004016107fc93929190612625565b6020604051808303816000875af115801561081b573d6000803e3d6000fd5b505050506040513d601f19601f8201168201806040525081019061083f9190612688565b5050565b600a5481565b6040518060e0016040528060068054610861906126e4565b80601f016020809104026020016040519081016040528092919081815260200182805461088d906126e4565b80156108da5780601f106108af576101008083540402835291602001916108da565b820191906000526020600020905b8154815290600101906020018083116108bd57829003601f168201915b505050505081526020016008548152602001600c548152602001600073ffffffffffffffffffffffffffffffffffffffff1681526020016000151581526020016000815260200161092c600854611695565b610937600c54611695565b600660405160200161094b939291906127e5565b60405160208183030381529060405260405160200161096a9190612816565b6040516020818303038152906040528051906020012081525060076000600854815260200190815260200160002060008201518160000190805190602001906109b4929190611c04565b50602082015181600101556040820151816002015560608201518160030160006101000a81548173ffffffffffffffffffffffffffffffffffffffff021916908373ffffffffffffffffffffffffffffffffffffffff16021790555060808201518160030160146101000a81548160ff02191690831515021790555060a0820151816004015560c0820151816005015590505060086000815480929190610a5a906124a7565b9190505550600c5460096000828254610a73919061282d565b92505081905550565b600560009054906101000a900473ffffffffffffffffffffffffffffffffffffffff1681565b600d5481565b60068054610ab5906126e4565b80601f0160208091040260200160405190810160405280929190818152602001828054610ae1906126e4565b8015610b2e5780601f10610b0357610100808354040283529160200191610b2e565b820191906000526020600020905b815481529060010190602001808311610b1157829003601f168201915b505050505081565b600b5481565b60015481565b6007602052806000526040600020600091509050806000018054610b65906126e4565b80601f0160208091040260200160405190810160405280929190818152602001828054610b91906126e4565b8015610bde5780601f10610bb357610100808354040283529160200191610bde565b820191906000526020600020905b815481529060010190602001808311610bc157829003601f168201915b5050505050908060010154908060020154908060030160009054906101000a900473ffffffffffffffffffffffffffffffffffffffff16908060030160149054906101000a900460ff16908060040154908060050154905087565b600460009054906101000a900473ffffffffffffffffffffffffffffffffffffffff1673ffffffffffffffffffffffffffffffffffffffff163373ffffffffffffffffffffffffffffffffffffffff1614610cc9576040517f08c379a0000000000000000000000000000000000000000000000000000000008152600401610cc09061253b565b60405180910390fd5b6000600e60009054906101000a900473ffffffffffffffffffffffffffffffffffffffff1673ffffffffffffffffffffffffffffffffffffffff166370a08231306040518263ffffffff1660e01b8152600401610d269190611eff565b602060405180830381865afa158015610d43573d6000803e3d6000fd5b505050506040513d601f19601f82011682018060405250810190610d679190612876565b9050600e60009054906101000a900473ffffffffffffffffffffffffffffffffffffffff1673ffffffffffffffffffffffffffffffffffffffff1663a9059cbb600460009054906101000a900473ffffffffffffffffffffffffffffffffffffffff16836040518363ffffffff1660e01b8152600401610de89291906128c4565b6020604051808303816000875af1158015610e07573d6000803e3d6000fd5b505050506040513d601f19601f82011682018060405250810190610e2b9190612688565b5060008060006101000a81548160ff02191690831515021790555050565b600c5481565b60085481565b6000600560009054906101000a900473ffffffffffffffffffffffffffffffffffffffff1673ffffffffffffffffffffffffffffffffffffffff16610f0584848080601f016020809104026020016040519081016040528093929190818152602001838380828437600081840152601f19601f82011690508083019250505050505050610ef760076000898152602001908152602001600020600501546117f5565b61182590919063ffffffff16565b73ffffffffffffffffffffffffffffffffffffffff161490509392505050565b600560009054906101000a900473ffffffffffffffffffffffffffffffffffffffff1673ffffffffffffffffffffffffffffffffffffffff163373ffffffffffffffffffffffffffffffffffffffff1614610fb5576040517f08c379a0000000000000000000000000000000000000000000000000000000008152600401610fac906125a7565b60405180910390fd5b4260035411610ff9576040517f08c379a0000000000000000000000000000000000000000000000000000000008152600401610ff09061295f565b60405180910390fd5b600015156007600087815260200190815260200160002060030160149054906101000a900460ff1615151461102d57600080fd5b8360076000878152602001908152602001600020600201541461104f57600080fd5b6001151560008054906101000a900460ff1615151461106d57600080fd5b6001151561107c868484610e55565b15151461108857600080fd5b600e60009054906101000a900473ffffffffffffffffffffffffffffffffffffffff1673ffffffffffffffffffffffffffffffffffffffff1663a9059cbb8460076000898152602001908152602001600020600201546040518363ffffffff1660e01b81526004016110fb92919061297f565b6020604051808303816000875af115801561111a573d6000803e3d6000fd5b505050506040513d601f19601f8201168201806040525081019061113e9190612688565b5060016007600087815260200190815260200160002060030160146101000a81548160ff02191690831515021790555060006007600087815260200190815260200160002060020181905550826007600087815260200190815260200160002060030160006101000a81548173ffffffffffffffffffffffffffffffffffffffff021916908373ffffffffffffffffffffffffffffffffffffffff1602179055505050505050565b600f80546111f3906126e4565b80601f016020809104026020016040519081016040528092919081815260200182805461121f906126e4565b801561126c5780601f106112415761010080835404028352916020019161126c565b820191906000526020600020905b81548152906001019060200180831161124f57829003601f168201915b505050505081565b60008054906101000a900460ff1681565b6000600560009054906101000a900473ffffffffffffffffffffffffffffffffffffffff1673ffffffffffffffffffffffffffffffffffffffff163373ffffffffffffffffffffffffffffffffffffffff1614611317576040517f08c379a000000000000000000000000000000000000000000000000000000000815260040161130e906125a7565b60405180910390fd5b6007600083815260200190815260200160002060030160149054906101000a900460ff169050919050565b600460009054906101000a900473ffffffffffffffffffffffffffffffffffffffff1673ffffffffffffffffffffffffffffffffffffffff163373ffffffffffffffffffffffffffffffffffffffff16146113d2576040517f08c379a00000000000000000000000000000000000000000000000000000000081526004016113c99061253b565b60405180910390fd5b60016000806101000a81548160ff021916908315150217905550565b6060600460009054906101000a900473ffffffffffffffffffffffffffffffffffffffff1673ffffffffffffffffffffffffffffffffffffffff163373ffffffffffffffffffffffffffffffffffffffff1614611480576040517f08c379a00000000000000000000000000000000000000000000000000000000081526004016114779061253b565b60405180910390fd5b600060085467ffffffffffffffff81111561149e5761149d6125c7565b5b6040519080825280602002602001820160405280156114d757816020015b6114c4611c8a565b8152602001906001900390816114bc5790505b50905060005b600854811015611667576000600760008381526020019081526020016000209050806040518060e001604052908160008201805461151a906126e4565b80601f0160208091040260200160405190810160405280929190818152602001828054611546906126e4565b80156115935780601f1061156857610100808354040283529160200191611593565b820191906000526020600020905b81548152906001019060200180831161157657829003601f168201915b5050505050815260200160018201548152602001600282015481526020016003820160009054906101000a900473ffffffffffffffffffffffffffffffffffffffff1673ffffffffffffffffffffffffffffffffffffffff1673ffffffffffffffffffffffffffffffffffffffff1681526020016003820160149054906101000a900460ff1615151515815260200160048201548152602001600582015481525050838381518110611648576116476125f6565b5b602002602001018190525050808061165f906124a7565b9150506114dd565b508091505090565b600e60009054906101000a900473ffffffffffffffffffffffffffffffffffffffff1681565b6060600082036116dc576040518060400160405280600181526020017f300000000000000000000000000000000000000000000000000000000000000081525090506117f0565b600082905060005b6000821461170e5780806116f7906124a7565b915050600a8261170791906129d7565b91506116e4565b60008167ffffffffffffffff81111561172a576117296125c7565b5b6040519080825280601f01601f19166020018201604052801561175c5781602001600182028036833780820191505090505b5090505b600085146117e957600182611775919061282d565b9150600a856117849190612a08565b60306117909190612a39565b60f81b8183815181106117a6576117a56125f6565b5b60200101907effffffffffffffffffffffffffffffffffffffffffffffffffffffffffffff1916908160001a905350600a856117e291906129d7565b9450611760565b8093505050505b919050565b6000816040516020016118089190612afc565b604051602081830303815290604052805190602001209050919050565b6000806000611834858561184c565b91509150611841816118cd565b819250505092915050565b600080604183510361188d5760008060006020860151925060408601519150606086015160001a905061188187828585611a99565b945094505050506118c6565b60408351036118bd5760008060208501519150604085015190506118b2868383611ba5565b9350935050506118c6565b60006002915091505b9250929050565b600060048111156118e1576118e0612b22565b5b8160048111156118f4576118f3612b22565b5b0315611a96576001600481111561190e5761190d612b22565b5b81600481111561192157611920612b22565b5b03611961576040517f08c379a000000000000000000000000000000000000000000000000000000000815260040161195890612b9d565b60405180910390fd5b6002600481111561197557611974612b22565b5b81600481111561198857611987612b22565b5b036119c8576040517f08c379a00000000000000000000000000000000000000000000000000000000081526004016119bf90612c09565b60405180910390fd5b600360048111156119dc576119db612b22565b5b8160048111156119ef576119ee612b22565b5b03611a2f576040517f08c379a0000000000000000000000000000000000000000000000000000000008152600401611a2690612c9b565b60405180910390fd5b600480811115611a4257611a41612b22565b5b816004811115611a5557611a54612b22565b5b03611a95576040517f08c379a0000000000000000000000000000000000000000000000000000000008152600401611a8c90612d2d565b60405180910390fd5b5b50565b6000807f7fffffffffffffffffffffffffffffff5d576e7357a4501ddfe92f46681b20a08360001c1115611ad4576000600391509150611b9c565b601b8560ff1614158015611aec5750601c8560ff1614155b15611afe576000600491509150611b9c565b600060018787878760405160008152602001604052604051611b239493929190612d69565b6020604051602081039080840390855afa158015611b45573d6000803e3d6000fd5b505050602060405103519050600073ffffffffffffffffffffffffffffffffffffffff168173ffffffffffffffffffffffffffffffffffffffff1603611b9357600060019250925050611b9c565b80600092509250505b94509492505050565b60008060007f7fffffffffffffffffffffffffffffffffffffffffffffffffffffffffffffff60001b841690506000601b60ff8660001c901c611be89190612a39565b9050611bf687828885611a99565b935093505050935093915050565b828054611c10906126e4565b90600052602060002090601f016020900481019282611c325760008555611c79565b82601f10611c4b57805160ff1916838001178555611c79565b82800160010185558215611c79579182015b82811115611c78578251825591602001919060010190611c5d565b5b509050611c869190611ce2565b5090565b6040518060e00160405280606081526020016000815260200160008152602001600073ffffffffffffffffffffffffffffffffffffffff16815260200160001515815260200160008152602001600080191681525090565b5b80821115611cfb576000816000905550600101611ce3565b5090565b6000819050919050565b611d1281611cff565b82525050565b6000602082019050611d2d6000830184611d09565b92915050565b600073ffffffffffffffffffffffffffffffffffffffff82169050919050565b6000611d5e82611d33565b9050919050565b611d6e81611d53565b82525050565b6000602082019050611d896000830184611d65565b92915050565b600081519050919050565b600082825260208201905092915050565b6000819050602082019050919050565b60008115159050919050565b611dd081611dbb565b82525050565b6000611de28383611dc7565b60208301905092915050565b6000602082019050919050565b6000611e0682611d8f565b611e108185611d9a565b9350611e1b83611dab565b8060005b83811015611e4c578151611e338882611dd6565b9750611e3e83611dee565b925050600181019050611e1f565b5085935050505092915050565b60006020820190508181036000830152611e738184611dfb565b905092915050565b600080fd5b600080fd5b611e8e81611cff565b8114611e9957600080fd5b50565b600081359050611eab81611e85565b92915050565b600060208284031215611ec757611ec6611e7b565b5b6000611ed584828501611e9c565b91505092915050565b6000611ee982611d33565b9050919050565b611ef981611ede565b82525050565b6000602082019050611f146000830184611ef0565b92915050565b600081519050919050565b600082825260208201905092915050565b60005b83811015611f54578082015181840152602081019050611f39565b83811115611f63576000848401525b50505050565b6000601f19601f8301169050919050565b6000611f8582611f1a565b611f8f8185611f25565b9350611f9f818560208601611f36565b611fa881611f69565b840191505092915050565b60006020820190508181036000830152611fcd8184611f7a565b905092915050565b611fde81611dbb565b82525050565b6000819050919050565b611ff781611fe4565b82525050565b600060e0820190508181036000830152612017818a611f7a565b90506120266020830189611d09565b6120336040830188611d09565b6120406060830187611ef0565b61204d6080830186611fd5565b61205a60a0830185611d09565b61206760c0830184611fee565b98975050505050505050565b600080fd5b600080fd5b600080fd5b60008083601f84011261209857612097612073565b5b8235905067ffffffffffffffff8111156120b5576120b4612078565b5b6020830191508360018202830111156120d1576120d061207d565b5b9250929050565b6000806000604084860312156120f1576120f0611e7b565b5b60006120ff86828701611e9c565b935050602084013567ffffffffffffffff8111156121205761211f611e80565b5b61212c86828701612082565b92509250509250925092565b600060208201905061214d6000830184611fd5565b92915050565b61215c81611ede565b811461216757600080fd5b50565b60008135905061217981612153565b92915050565b60008060008060006080868803121561219b5761219a611e7b565b5b60006121a988828901611e9c565b95505060206121ba88828901611e9c565b94505060406121cb8882890161216a565b935050606086013567ffffffffffffffff8111156121ec576121eb611e80565b5b6121f888828901612082565b92509250509295509295909350565b600081519050919050565b600082825260208201905092915050565b6000819050602082019050919050565b600082825260208201905092915050565b600061224f82611f1a565b6122598185612233565b9350612269818560208601611f36565b61227281611f69565b840191505092915050565b61228681611cff565b82525050565b61229581611ede565b82525050565b6122a481611fe4565b82525050565b600060e08301600083015184820360008601526122c78282612244565b91505060208301516122dc602086018261227d565b5060408301516122ef604086018261227d565b506060830151612302606086018261228c565b5060808301516123156080860182611dc7565b5060a083015161232860a086018261227d565b5060c083015161233b60c086018261229b565b508091505092915050565b600061235283836122aa565b905092915050565b6000602082019050919050565b600061237282612207565b61237c8185612212565b93508360208202850161238e85612223565b8060005b858110156123ca57848403895281516123ab8582612346565b94506123b68361235a565b925060208a01995050600181019050612392565b50829750879550505050505092915050565b600060208201905081810360008301526123f68184612367565b905092915050565b6000819050919050565b600061242361241e61241984611d33565b6123fe565b611d33565b9050919050565b600061243582612408565b9050919050565b60006124478261242a565b9050919050565b6124578161243c565b82525050565b6000602082019050612472600083018461244e565b92915050565b7f4e487b7100000000000000000000000000000000000000000000000000000000600052601160045260246000fd5b60006124b282611cff565b91507fffffffffffffffffffffffffffffffffffffffffffffffffffffffffffffffff82036124e4576124e3612478565b5b600182019050919050565b7f6e6f7420636c69656e7400000000000000000000000000000000000000000000600082015250565b6000612525600a83611f25565b9150612530826124ef565b602082019050919050565b6000602082019050818103600083015261255481612518565b9050919050565b7f6e6f742076616c696461746f7200000000000000000000000000000000000000600082015250565b6000612591600d83611f25565b915061259c8261255b565b602082019050919050565b600060208201905081810360008301526125c081612584565b9050919050565b7f4e487b7100000000000000000000000000000000000000000000000000000000600052604160045260246000fd5b7f4e487b7100000000000000000000000000000000000000000000000000000000600052603260045260246000fd5b600060608201905061263a6000830186611ef0565b6126476020830185611ef0565b6126546040830184611d09565b949350505050565b61266581611dbb565b811461267057600080fd5b50565b6000815190506126828161265c565b92915050565b60006020828403121561269e5761269d611e7b565b5b60006126ac84828501612673565b91505092915050565b7f4e487b7100000000000000000000000000000000000000000000000000000000600052602260045260246000fd5b600060028204905060018216806126fc57607f821691505b60208210810361270f5761270e6126b5565b5b50919050565b600081905092915050565b600061272b82611f1a565b6127358185612715565b9350612745818560208601611f36565b80840191505092915050565b60008190508160005260206000209050919050565b60008154612773816126e4565b61277d8186612715565b9450600182166000811461279857600181146127a9576127dc565b60ff198316865281860193506127dc565b6127b285612751565b60005b838110156127d4578154818901526001820191506020810190506127b5565b838801955050505b50505092915050565b60006127f18286612720565b91506127fd8285612720565b91506128098284612766565b9150819050949350505050565b60006128228284612720565b915081905092915050565b600061283882611cff565b915061284383611cff565b92508282101561285657612855612478565b5b828203905092915050565b60008151905061287081611e85565b92915050565b60006020828403121561288c5761288b611e7b565b5b600061289a84828501612861565b91505092915050565b60006128ae8261242a565b9050919050565b6128be816128a3565b82525050565b60006040820190506128d960008301856128b5565b6128e66020830184611d09565b9392505050565b7f74696d657374616d7020657863656564732065787069726174696f6e2064617460008201527f6500000000000000000000000000000000000000000000000000000000000000602082015250565b6000612949602183611f25565b9150612954826128ed565b604082019050919050565b600060208201905081810360008301526129788161293c565b9050919050565b60006040820190506129946000830185611ef0565b6129a16020830184611d09565b9392505050565b7f4e487b7100000000000000000000000000000000000000000000000000000000600052601260045260246000fd5b60006129e282611cff565b91506129ed83611cff565b9250826129fd576129fc6129a8565b5b828204905092915050565b6000612a1382611cff565b9150612a1e83611cff565b925082612a2e57612a2d6129a8565b5b828206905092915050565b6000612a4482611cff565b9150612a4f83611cff565b9250827fffffffffffffffffffffffffffffffffffffffffffffffffffffffffffffffff03821115612a8457612a83612478565b5b828201905092915050565b7f19457468657265756d205369676e6564204d6573736167653a0a333200000000600082015250565b6000612ac5601c83612715565b9150612ad082612a8f565b601c82019050919050565b6000819050919050565b612af6612af182611fe4565b612adb565b82525050565b6000612b0782612ab8565b9150612b138284612ae5565b60208201915081905092915050565b7f4e487b7100000000000000000000000000000000000000000000000000000000600052602160045260246000fd5b7f45434453413a20696e76616c6964207369676e61747572650000000000000000600082015250565b6000612b87601883611f25565b9150612b9282612b51565b602082019050919050565b60006020820190508181036000830152612bb681612b7a565b9050919050565b7f45434453413a20696e76616c6964207369676e6174757265206c656e67746800600082015250565b6000612bf3601f83611f25565b9150612bfe82612bbd565b602082019050919050565b60006020820190508181036000830152612c2281612be6565b9050919050565b7f45434453413a20696e76616c6964207369676e6174757265202773272076616c60008201527f7565000000000000000000000000000000000000000000000000000000000000602082015250565b6000612c85602283611f25565b9150612c9082612c29565b604082019050919050565b60006020820190508181036000830152612cb481612c78565b9050919050565b7f45434453413a20696e76616c6964207369676e6174757265202776272076616c60008201527f7565000000000000000000000000000000000000000000000000000000000000602082015250565b6000612d17602283611f25565b9150612d2282612cbb565b604082019050919050565b60006020820190508181036000830152612d4681612d0a565b9050919050565b600060ff82169050919050565b612d6381612d4d565b82525050565b6000608082019050612d7e6000830187611fee565b612d8b6020830186612d5a565b612d986040830185611fee565b612da56060830184611fee565b9594505050505056fea2646970667358221220999a73b18a0ca61b839a0fdd51b8bcee573d91942a43f852137589c9ee48023e64736f6c634300080d0033",
  "linkReferences": {},
  "deployedLinkReferences": {}
}