{
  "_format": "hh-sol-artifact-1",
  "contractName": "LinkDropProd",
  "sourceName": "contracts/LinkDropProd.sol",
  "abi": [
    {
      "inputs": [
        {
          "internalType": "address",
          "name": "_token",
          "type": "address"
        },
        {
          "internalType": "address payable",
          "name": "_client",
          "type": "address"
        },
        {
          "internalType": "uint256",
          "name": "_duration",
          "type": "uint256"
        },
        {
          "internalType": "uint256",
          "name": "_cost",
          "type": "uint256"
        },
        {
          "internalType": "uint256",
          "name": "_num",
          "type": "uint256"
        },
        {
          "internalType": "string",
          "name": "_campaignID",
          "type": "string"
        }
      ],
      "stateMutability": "nonpayable",
      "type": "constructor"
    },
    {
      "inputs": [],
      "name": "addLink",
      "outputs": [],
      "stateMutability": "nonpayable",
      "type": "function"
    },
    {
      "inputs": [
        {
          "internalType": "uint256",
          "name": "_id",
          "type": "uint256"
        },
        {
          "internalType": "uint256",
          "name": "_balance",
          "type": "uint256"
        },
        {
          "internalType": "address",
          "name": "_user",
          "type": "address"
        },
        {
          "internalType": "bytes",
          "name": "_signature",
          "type": "bytes"
        }
      ],
      "name": "airdrop",
      "outputs": [],
      "stateMutability": "nonpayable",
      "type": "function"
    },
    {
      "inputs": [],
      "name": "campaignID",
      "outputs": [
        {
          "internalType": "string",
          "name": "",
          "type": "string"
        }
      ],
      "stateMutability": "view",
      "type": "function"
    },
    {
      "inputs": [],
      "name": "cancelCampaign",
      "outputs": [],
      "stateMutability": "nonpayable",
      "type": "function"
    },
    {
      "inputs": [],
      "name": "cost",
      "outputs": [
        {
          "internalType": "uint256",
          "name": "",
          "type": "uint256"
        }
      ],
      "stateMutability": "view",
      "type": "function"
    },
    {
      "inputs": [],
      "name": "costPerNum",
      "outputs": [
        {
          "internalType": "uint256",
          "name": "",
          "type": "uint256"
        }
      ],
      "stateMutability": "view",
      "type": "function"
    },
    {
      "inputs": [],
      "name": "createMultipleLinks",
      "outputs": [],
      "stateMutability": "nonpayable",
      "type": "function"
    },
    {
      "inputs": [],
      "name": "duration",
      "outputs": [
        {
          "internalType": "uint256",
          "name": "",
          "type": "uint256"
        }
      ],
      "stateMutability": "view",
      "type": "function"
    },
    {
      "inputs": [],
      "name": "endTime",
      "outputs": [
        {
          "internalType": "uint256",
          "name": "",
          "type": "uint256"
        }
      ],
      "stateMutability": "view",
      "type": "function"
    },
    {
      "inputs": [
        {
          "internalType": "uint256",
          "name": "_fundingAmount",
          "type": "uint256"
        }
      ],
      "name": "fundContract",
      "outputs": [],
      "stateMutability": "nonpayable",
      "type": "function"
    },
    {
      "inputs": [],
      "name": "generatedLinkCount",
      "outputs": [
        {
          "internalType": "uint256",
          "name": "",
          "type": "uint256"
        }
      ],
      "stateMutability": "view",
      "type": "function"
    },
    {
      "inputs": [],
      "name": "getLinks",
      "outputs": [
        {
          "components": [
            {
              "internalType": "string",
              "name": "campaignID",
              "type": "string"
            },
            {
              "internalType": "uint256",
              "name": "id",
              "type": "uint256"
            },
            {
              "internalType": "uint256",
              "name": "balance",
              "type": "uint256"
            },
            {
              "internalType": "address",
              "name": "pubwallet",
              "type": "address"
            },
            {
              "internalType": "bool",
              "name": "taken",
              "type": "bool"
            },
            {
              "internalType": "uint256",
              "name": "time",
              "type": "uint256"
            },
            {
              "internalType": "bytes32",
              "name": "puzzle",
              "type": "bytes32"
            }
          ],
          "internalType": "struct LinkDropProd.Link[]",
          "name": "",
          "type": "tuple[]"
        }
      ],
      "stateMutability": "view",
      "type": "function"
    },
    {
      "inputs": [
        {
          "internalType": "uint256",
          "name": "nu",
          "type": "uint256"
        }
      ],
      "name": "getLinksByIndexFromValidator",
      "outputs": [
        {
          "internalType": "bool",
          "name": "",
          "type": "bool"
        }
      ],
      "stateMutability": "view",
      "type": "function"
    },
    {
      "inputs": [],
      "name": "getLinksFromValidator",
      "outputs": [
        {
          "internalType": "bool[]",
          "name": "",
          "type": "bool[]"
        }
      ],
      "stateMutability": "view",
      "type": "function"
    },
    {
      "inputs": [],
      "name": "initialSupply",
      "outputs": [
        {
          "internalType": "uint256",
          "name": "",
          "type": "uint256"
        }
      ],
      "stateMutability": "view",
      "type": "function"
    },
    {
      "inputs": [
        {
          "internalType": "uint256",
          "name": "nuu",
          "type": "uint256"
        },
        {
          "internalType": "bytes",
          "name": "signature",
          "type": "bytes"
        }
      ],
      "name": "isValidSignature",
      "outputs": [
        {
          "internalType": "bool",
          "name": "",
          "type": "bool"
        }
      ],
      "stateMutability": "view",
      "type": "function"
    },
    {
      "inputs": [],
      "name": "linkCount",
      "outputs": [
        {
          "internalType": "uint256",
          "name": "",
          "type": "uint256"
        }
      ],
      "stateMutability": "view",
      "type": "function"
    },
    {
      "inputs": [],
      "name": "num",
      "outputs": [
        {
          "internalType": "uint256",
          "name": "",
          "type": "uint256"
        }
      ],
      "stateMutability": "view",
      "type": "function"
    },
    {
      "inputs": [],
      "name": "pauseCampaign",
      "outputs": [],
      "stateMutability": "nonpayable",
      "type": "function"
    },
    {
      "inputs": [],
      "name": "randomString",
      "outputs": [
        {
          "internalType": "string",
          "name": "",
          "type": "string"
        }
      ],
      "stateMutability": "view",
      "type": "function"
    },
    {
      "inputs": [],
      "name": "runCampaign",
      "outputs": [],
      "stateMutability": "nonpayable",
      "type": "function"
    },
    {
      "inputs": [],
      "name": "running",
      "outputs": [
        {
          "internalType": "bool",
          "name": "",
          "type": "bool"
        }
      ],
      "stateMutability": "view",
      "type": "function"
    },
    {
      "inputs": [],
      "name": "startTime",
      "outputs": [
        {
          "internalType": "uint256",
          "name": "",
          "type": "uint256"
        }
      ],
      "stateMutability": "view",
      "type": "function"
    },
    {
      "inputs": [],
      "name": "token",
      "outputs": [
        {
          "internalType": "contract IERC20",
          "name": "",
          "type": "address"
        }
      ],
      "stateMutability": "view",
      "type": "function"
    }
  ],
  "bytecode": "0x60806040523480156200001157600080fd5b5060405162003292380380620032928339818101604052810190620000379190620004e3565b85600e60006101000a81548173ffffffffffffffffffffffffffffffffffffffff021916908373ffffffffffffffffffffffffffffffffffffffff16021790555084600460006101000a81548173ffffffffffffffffffffffffffffffffffffffff021916908373ffffffffffffffffffffffffffffffffffffffff1602179055508260098190555082600a8190555081600b819055508183620000dc9190620005fc565b600c8190555033600560006101000a81548173ffffffffffffffffffffffffffffffffffffffff021916908373ffffffffffffffffffffffffffffffffffffffff16021790555080600690805190602001906200013b929190620001b1565b506018603c80866200014e919062000634565b6200015a919062000634565b62000166919062000634565b6002819055504260018190555060025460015462000185919062000695565b60038190555060016000806101000a81548160ff02191690831515021790555050505050505062000756565b828054620001bf9062000721565b90600052602060002090601f016020900481019282620001e357600085556200022f565b82601f10620001fe57805160ff19168380011785556200022f565b828001600101855582156200022f579182015b828111156200022e57825182559160200191906001019062000211565b5b5090506200023e919062000242565b5090565b5b808211156200025d57600081600090555060010162000243565b5090565b6000604051905090565b600080fd5b600080fd5b600073ffffffffffffffffffffffffffffffffffffffff82169050919050565b6000620002a28262000275565b9050919050565b620002b48162000295565b8114620002c057600080fd5b50565b600081519050620002d481620002a9565b92915050565b6000620002e78262000275565b9050919050565b620002f981620002da565b81146200030557600080fd5b50565b6000815190506200031981620002ee565b92915050565b6000819050919050565b62000334816200031f565b81146200034057600080fd5b50565b600081519050620003548162000329565b92915050565b600080fd5b600080fd5b6000601f19601f8301169050919050565b7f4e487b7100000000000000000000000000000000000000000000000000000000600052604160045260246000fd5b620003af8262000364565b810181811067ffffffffffffffff82111715620003d157620003d062000375565b5b80604052505050565b6000620003e662000261565b9050620003f48282620003a4565b919050565b600067ffffffffffffffff82111562000417576200041662000375565b5b620004228262000364565b9050602081019050919050565b60005b838110156200044f57808201518184015260208101905062000432565b838111156200045f576000848401525b50505050565b60006200047c6200047684620003f9565b620003da565b9050828152602081018484840111156200049b576200049a6200035f565b5b620004a88482856200042f565b509392505050565b600082601f830112620004c857620004c76200035a565b5b8151620004da84826020860162000465565b91505092915050565b60008060008060008060c087890312156200050357620005026200026b565b5b60006200051389828a01620002c3565b96505060206200052689828a0162000308565b95505060406200053989828a0162000343565b94505060606200054c89828a0162000343565b93505060806200055f89828a0162000343565b92505060a087015167ffffffffffffffff81111562000583576200058262000270565b5b6200059189828a01620004b0565b9150509295509295509295565b7f4e487b7100000000000000000000000000000000000000000000000000000000600052601260045260246000fd5b7f4e487b7100000000000000000000000000000000000000000000000000000000600052601160045260246000fd5b600062000609826200031f565b915062000616836200031f565b9250826200062957620006286200059e565b5b828204905092915050565b600062000641826200031f565b91506200064e836200031f565b9250817fffffffffffffffffffffffffffffffffffffffffffffffffffffffffffffffff04831182151516156200068a5762000689620005cd565b5b828202905092915050565b6000620006a2826200031f565b9150620006af836200031f565b9250827fffffffffffffffffffffffffffffffffffffffffffffffffffffffffffffffff03821115620006e757620006e6620005cd565b5b828201905092915050565b7f4e487b7100000000000000000000000000000000000000000000000000000000600052602260045260246000fd5b600060028204905060018216806200073a57607f821691505b60208210810362000750576200074f620006f2565b5b50919050565b612b2c80620007666000396000f3fe608060405234801561001057600080fd5b50600436106101585760003560e01c806378e97925116100c3578063bafcd6781161007c578063bafcd67814610337578063d85bd52614610355578063deb456da14610373578063f293cd31146103a3578063f66ddcbb146103ad578063fc0c546a146103cb57610158565b806378e9792514610287578063980e7844146102a55780639ae6c810146102af578063aac47679146102cd578063b2af9362146102eb578063b78605b21461031b57610158565b80633519a2f8116101155780633519a2f8146101e9578063378dc3dc1461020557806339f8ddbf1461022357806342317f951461022d57806349ed2fa91461024b5780634e70b1dc1461026957610158565b80630c55b8771461015d5780630d10f3b5146101675780630fb5a6b41461017157806312eeb88b1461018f57806313faede6146101ad5780633197cbb6146101cb575b600080fd5b6101656103e9565b005b61016f610414565b005b6101796104c0565b6040516101869190611b12565b60405180910390f35b6101976104c6565b6040516101a49190611bf7565b60405180910390f35b6101b5610618565b6040516101c29190611b12565b60405180910390f35b6101d361061e565b6040516101e09190611b12565b60405180910390f35b61020360048036038101906101fe9190611c4f565b610624565b005b61020d61075a565b60405161021a9190611b12565b60405180910390f35b61022b610760565b005b610235610993565b6040516102429190611b12565b60405180910390f35b610253610999565b6040516102609190611d15565b60405180910390f35b610271610a27565b60405161027e9190611b12565b60405180910390f35b61028f610a2d565b60405161029c9190611b12565b60405180910390f35b6102ad610a33565b005b6102b7610c43565b6040516102c49190611b12565b60405180910390f35b6102d5610c49565b6040516102e29190611b12565b60405180910390f35b61030560048036038101906103009190611d9c565b610c4f565b6040516103129190611e0b565b60405180910390f35b61033560048036038101906103309190611e84565b610d1f565b005b61033f610fe0565b60405161034c9190611d15565b60405180910390f35b61035d61106e565b60405161036a9190611e0b565b60405180910390f35b61038d60048036038101906103889190611c4f565b61107f565b60405161039a9190611e0b565b60405180910390f35b6103ab61113c565b005b6103b56111e8565b6040516103c291906120eb565b60405180910390f35b6103d3611469565b6040516103e0919061216c565b60405180910390f35b60005b600b54811015610411576103fe610760565b8080610409906121b6565b9150506103ec565b50565b600460009054906101000a900473ffffffffffffffffffffffffffffffffffffffff1673ffffffffffffffffffffffffffffffffffffffff163373ffffffffffffffffffffffffffffffffffffffff16146104a4576040517f08c379a000000000000000000000000000000000000000000000000000000000815260040161049b9061224a565b60405180910390fd5b60008060006101000a81548160ff021916908315150217905550565b60025481565b6060600560009054906101000a900473ffffffffffffffffffffffffffffffffffffffff1673ffffffffffffffffffffffffffffffffffffffff163373ffffffffffffffffffffffffffffffffffffffff1614610558576040517f08c379a000000000000000000000000000000000000000000000000000000000815260040161054f906122b6565b60405180910390fd5b600060085467ffffffffffffffff811115610576576105756122d6565b5b6040519080825280602002602001820160405280156105a45781602001602082028036833780820191505090505b50905060005b600854811015610610576007600082815260200190815260200160002060030160149054906101000a900460ff168282815181106105eb576105ea612305565b5b6020026020010190151590811515815250508080610608906121b6565b9150506105aa565b508091505090565b60095481565b60035481565b600460009054906101000a900473ffffffffffffffffffffffffffffffffffffffff1673ffffffffffffffffffffffffffffffffffffffff163373ffffffffffffffffffffffffffffffffffffffff16146106b4576040517f08c379a00000000000000000000000000000000000000000000000000000000081526004016106ab9061224a565b60405180910390fd5b600e60009054906101000a900473ffffffffffffffffffffffffffffffffffffffff1673ffffffffffffffffffffffffffffffffffffffff166323b872dd3330846040518463ffffffff1660e01b815260040161071393929190612343565b6020604051808303816000875af1158015610732573d6000803e3d6000fd5b505050506040513d601f19601f8201168201806040525081019061075691906123a6565b5050565b600a5481565b6040518060e001604052806006805461077890612402565b80601f01602080910402602001604051908101604052809291908181526020018280546107a490612402565b80156107f15780601f106107c6576101008083540402835291602001916107f1565b820191906000526020600020905b8154815290600101906020018083116107d457829003601f168201915b505050505081526020016008548152602001600c548152602001600073ffffffffffffffffffffffffffffffffffffffff1681526020016000151581526020016000815260200161084360085461148f565b61084e600c5461148f565b600660405160200161086293929190612503565b6040516020818303038152906040526040516020016108819190612534565b6040516020818303038152906040528051906020012081525060076000600854815260200190815260200160002060008201518160000190805190602001906108cb9291906119fe565b50602082015181600101556040820151816002015560608201518160030160006101000a81548173ffffffffffffffffffffffffffffffffffffffff021916908373ffffffffffffffffffffffffffffffffffffffff16021790555060808201518160030160146101000a81548160ff02191690831515021790555060a0820151816004015560c0820151816005015590505060086000815480929190610971906121b6565b9190505550600c546009600082825461098a919061254b565b92505081905550565b600d5481565b600680546109a690612402565b80601f01602080910402602001604051908101604052809291908181526020018280546109d290612402565b8015610a1f5780601f106109f457610100808354040283529160200191610a1f565b820191906000526020600020905b815481529060010190602001808311610a0257829003601f168201915b505050505081565b600b5481565b60015481565b600460009054906101000a900473ffffffffffffffffffffffffffffffffffffffff1673ffffffffffffffffffffffffffffffffffffffff163373ffffffffffffffffffffffffffffffffffffffff1614610ac3576040517f08c379a0000000000000000000000000000000000000000000000000000000008152600401610aba9061224a565b60405180910390fd5b6000600e60009054906101000a900473ffffffffffffffffffffffffffffffffffffffff1673ffffffffffffffffffffffffffffffffffffffff166370a08231306040518263ffffffff1660e01b8152600401610b20919061257f565b602060405180830381865afa158015610b3d573d6000803e3d6000fd5b505050506040513d601f19601f82011682018060405250810190610b6191906125af565b9050600e60009054906101000a900473ffffffffffffffffffffffffffffffffffffffff1673ffffffffffffffffffffffffffffffffffffffff1663a9059cbb600460009054906101000a900473ffffffffffffffffffffffffffffffffffffffff16836040518363ffffffff1660e01b8152600401610be29291906125fd565b6020604051808303816000875af1158015610c01573d6000803e3d6000fd5b505050506040513d601f19601f82011682018060405250810190610c2591906123a6565b5060008060006101000a81548160ff02191690831515021790555050565b600c5481565b60085481565b6000600560009054906101000a900473ffffffffffffffffffffffffffffffffffffffff1673ffffffffffffffffffffffffffffffffffffffff16610cff84848080601f016020809104026020016040519081016040528093929190818152602001838380828437600081840152601f19601f82011690508083019250505050505050610cf160076000898152602001908152602001600020600501546115ef565b61161f90919063ffffffff16565b73ffffffffffffffffffffffffffffffffffffffff161490509392505050565b600560009054906101000a900473ffffffffffffffffffffffffffffffffffffffff1673ffffffffffffffffffffffffffffffffffffffff163373ffffffffffffffffffffffffffffffffffffffff1614610daf576040517f08c379a0000000000000000000000000000000000000000000000000000000008152600401610da6906122b6565b60405180910390fd5b4260035411610df3576040517f08c379a0000000000000000000000000000000000000000000000000000000008152600401610dea90612698565b60405180910390fd5b600015156007600087815260200190815260200160002060030160149054906101000a900460ff16151514610e2757600080fd5b83600760008781526020019081526020016000206002015414610e4957600080fd5b6001151560008054906101000a900460ff16151514610e6757600080fd5b60011515610e76868484610c4f565b151514610e8257600080fd5b600e60009054906101000a900473ffffffffffffffffffffffffffffffffffffffff1673ffffffffffffffffffffffffffffffffffffffff1663a9059cbb8460076000898152602001908152602001600020600201546040518363ffffffff1660e01b8152600401610ef59291906126b8565b6020604051808303816000875af1158015610f14573d6000803e3d6000fd5b505050506040513d601f19601f82011682018060405250810190610f3891906123a6565b5060016007600087815260200190815260200160002060030160146101000a81548160ff02191690831515021790555060006007600087815260200190815260200160002060020181905550826007600087815260200190815260200160002060030160006101000a81548173ffffffffffffffffffffffffffffffffffffffff021916908373ffffffffffffffffffffffffffffffffffffffff1602179055505050505050565b600f8054610fed90612402565b80601f016020809104026020016040519081016040528092919081815260200182805461101990612402565b80156110665780601f1061103b57610100808354040283529160200191611066565b820191906000526020600020905b81548152906001019060200180831161104957829003601f168201915b505050505081565b60008054906101000a900460ff1681565b6000600560009054906101000a900473ffffffffffffffffffffffffffffffffffffffff1673ffffffffffffffffffffffffffffffffffffffff163373ffffffffffffffffffffffffffffffffffffffff1614611111576040517f08c379a0000000000000000000000000000000000000000000000000000000008152600401611108906122b6565b60405180910390fd5b6007600083815260200190815260200160002060030160149054906101000a900460ff169050919050565b600460009054906101000a900473ffffffffffffffffffffffffffffffffffffffff1673ffffffffffffffffffffffffffffffffffffffff163373ffffffffffffffffffffffffffffffffffffffff16146111cc576040517f08c379a00000000000000000000000000000000000000000000000000000000081526004016111c39061224a565b60405180910390fd5b60016000806101000a81548160ff021916908315150217905550565b6060600460009054906101000a900473ffffffffffffffffffffffffffffffffffffffff1673ffffffffffffffffffffffffffffffffffffffff163373ffffffffffffffffffffffffffffffffffffffff161461127a576040517f08c379a00000000000000000000000000000000000000000000000000000000081526004016112719061224a565b60405180910390fd5b600060085467ffffffffffffffff811115611298576112976122d6565b5b6040519080825280602002602001820160405280156112d157816020015b6112be611a84565b8152602001906001900390816112b65790505b50905060005b600854811015611461576000600760008381526020019081526020016000209050806040518060e001604052908160008201805461131490612402565b80601f016020809104026020016040519081016040528092919081815260200182805461134090612402565b801561138d5780601f106113625761010080835404028352916020019161138d565b820191906000526020600020905b81548152906001019060200180831161137057829003601f168201915b5050505050815260200160018201548152602001600282015481526020016003820160009054906101000a900473ffffffffffffffffffffffffffffffffffffffff1673ffffffffffffffffffffffffffffffffffffffff1673ffffffffffffffffffffffffffffffffffffffff1681526020016003820160149054906101000a900460ff161515151581526020016004820154815260200160058201548152505083838151811061144257611441612305565b5b6020026020010181905250508080611459906121b6565b9150506112d7565b508091505090565b600e60009054906101000a900473ffffffffffffffffffffffffffffffffffffffff1681565b6060600082036114d6576040518060400160405280600181526020017f300000000000000000000000000000000000000000000000000000000000000081525090506115ea565b600082905060005b600082146115085780806114f1906121b6565b915050600a826115019190612710565b91506114de565b60008167ffffffffffffffff811115611524576115236122d6565b5b6040519080825280601f01601f1916602001820160405280156115565781602001600182028036833780820191505090505b5090505b600085146115e35760018261156f919061254b565b9150600a8561157e9190612741565b603061158a9190612772565b60f81b8183815181106115a05761159f612305565b5b60200101907effffffffffffffffffffffffffffffffffffffffffffffffffffffffffffff1916908160001a905350600a856115dc9190612710565b945061155a565b8093505050505b919050565b6000816040516020016116029190612835565b604051602081830303815290604052805190602001209050919050565b600080600061162e8585611646565b9150915061163b816116c7565b819250505092915050565b60008060418351036116875760008060006020860151925060408601519150606086015160001a905061167b87828585611893565b945094505050506116c0565b60408351036116b75760008060208501519150604085015190506116ac86838361199f565b9350935050506116c0565b60006002915091505b9250929050565b600060048111156116db576116da61285b565b5b8160048111156116ee576116ed61285b565b5b031561189057600160048111156117085761170761285b565b5b81600481111561171b5761171a61285b565b5b0361175b576040517f08c379a0000000000000000000000000000000000000000000000000000000008152600401611752906128d6565b60405180910390fd5b6002600481111561176f5761176e61285b565b5b8160048111156117825761178161285b565b5b036117c2576040517f08c379a00000000000000000000000000000000000000000000000000000000081526004016117b990612942565b60405180910390fd5b600360048111156117d6576117d561285b565b5b8160048111156117e9576117e861285b565b5b03611829576040517f08c379a0000000000000000000000000000000000000000000000000000000008152600401611820906129d4565b60405180910390fd5b60048081111561183c5761183b61285b565b5b81600481111561184f5761184e61285b565b5b0361188f576040517f08c379a000000000000000000000000000000000000000000000000000000000815260040161188690612a66565b60405180910390fd5b5b50565b6000807f7fffffffffffffffffffffffffffffff5d576e7357a4501ddfe92f46681b20a08360001c11156118ce576000600391509150611996565b601b8560ff16141580156118e65750601c8560ff1614155b156118f8576000600491509150611996565b60006001878787876040516000815260200160405260405161191d9493929190612ab1565b6020604051602081039080840390855afa15801561193f573d6000803e3d6000fd5b505050602060405103519050600073ffffffffffffffffffffffffffffffffffffffff168173ffffffffffffffffffffffffffffffffffffffff160361198d57600060019250925050611996565b80600092509250505b94509492505050565b60008060007f7fffffffffffffffffffffffffffffffffffffffffffffffffffffffffffffff60001b841690506000601b60ff8660001c901c6119e29190612772565b90506119f087828885611893565b935093505050935093915050565b828054611a0a90612402565b90600052602060002090601f016020900481019282611a2c5760008555611a73565b82601f10611a4557805160ff1916838001178555611a73565b82800160010185558215611a73579182015b82811115611a72578251825591602001919060010190611a57565b5b509050611a809190611adc565b5090565b6040518060e00160405280606081526020016000815260200160008152602001600073ffffffffffffffffffffffffffffffffffffffff16815260200160001515815260200160008152602001600080191681525090565b5b80821115611af5576000816000905550600101611add565b5090565b6000819050919050565b611b0c81611af9565b82525050565b6000602082019050611b276000830184611b03565b92915050565b600081519050919050565b600082825260208201905092915050565b6000819050602082019050919050565b60008115159050919050565b611b6e81611b59565b82525050565b6000611b808383611b65565b60208301905092915050565b6000602082019050919050565b6000611ba482611b2d565b611bae8185611b38565b9350611bb983611b49565b8060005b83811015611bea578151611bd18882611b74565b9750611bdc83611b8c565b925050600181019050611bbd565b5085935050505092915050565b60006020820190508181036000830152611c118184611b99565b905092915050565b600080fd5b600080fd5b611c2c81611af9565b8114611c3757600080fd5b50565b600081359050611c4981611c23565b92915050565b600060208284031215611c6557611c64611c19565b5b6000611c7384828501611c3a565b91505092915050565b600081519050919050565b600082825260208201905092915050565b60005b83811015611cb6578082015181840152602081019050611c9b565b83811115611cc5576000848401525b50505050565b6000601f19601f8301169050919050565b6000611ce782611c7c565b611cf18185611c87565b9350611d01818560208601611c98565b611d0a81611ccb565b840191505092915050565b60006020820190508181036000830152611d2f8184611cdc565b905092915050565b600080fd5b600080fd5b600080fd5b60008083601f840112611d5c57611d5b611d37565b5b8235905067ffffffffffffffff811115611d7957611d78611d3c565b5b602083019150836001820283011115611d9557611d94611d41565b5b9250929050565b600080600060408486031215611db557611db4611c19565b5b6000611dc386828701611c3a565b935050602084013567ffffffffffffffff811115611de457611de3611c1e565b5b611df086828701611d46565b92509250509250925092565b611e0581611b59565b82525050565b6000602082019050611e206000830184611dfc565b92915050565b600073ffffffffffffffffffffffffffffffffffffffff82169050919050565b6000611e5182611e26565b9050919050565b611e6181611e46565b8114611e6c57600080fd5b50565b600081359050611e7e81611e58565b92915050565b600080600080600060808688031215611ea057611e9f611c19565b5b6000611eae88828901611c3a565b9550506020611ebf88828901611c3a565b9450506040611ed088828901611e6f565b935050606086013567ffffffffffffffff811115611ef157611ef0611c1e565b5b611efd88828901611d46565b92509250509295509295909350565b600081519050919050565b600082825260208201905092915050565b6000819050602082019050919050565b600082825260208201905092915050565b6000611f5482611c7c565b611f5e8185611f38565b9350611f6e818560208601611c98565b611f7781611ccb565b840191505092915050565b611f8b81611af9565b82525050565b611f9a81611e46565b82525050565b6000819050919050565b611fb381611fa0565b82525050565b600060e0830160008301518482036000860152611fd68282611f49565b9150506020830151611feb6020860182611f82565b506040830151611ffe6040860182611f82565b5060608301516120116060860182611f91565b5060808301516120246080860182611b65565b5060a083015161203760a0860182611f82565b5060c083015161204a60c0860182611faa565b508091505092915050565b60006120618383611fb9565b905092915050565b6000602082019050919050565b600061208182611f0c565b61208b8185611f17565b93508360208202850161209d85611f28565b8060005b858110156120d957848403895281516120ba8582612055565b94506120c583612069565b925060208a019950506001810190506120a1565b50829750879550505050505092915050565b600060208201905081810360008301526121058184612076565b905092915050565b6000819050919050565b600061213261212d61212884611e26565b61210d565b611e26565b9050919050565b600061214482612117565b9050919050565b600061215682612139565b9050919050565b6121668161214b565b82525050565b6000602082019050612181600083018461215d565b92915050565b7f4e487b7100000000000000000000000000000000000000000000000000000000600052601160045260246000fd5b60006121c182611af9565b91507fffffffffffffffffffffffffffffffffffffffffffffffffffffffffffffffff82036121f3576121f2612187565b5b600182019050919050565b7f6e6f7420636c69656e7400000000000000000000000000000000000000000000600082015250565b6000612234600a83611c87565b915061223f826121fe565b602082019050919050565b6000602082019050818103600083015261226381612227565b9050919050565b7f6e6f742076616c696461746f7200000000000000000000000000000000000000600082015250565b60006122a0600d83611c87565b91506122ab8261226a565b602082019050919050565b600060208201905081810360008301526122cf81612293565b9050919050565b7f4e487b7100000000000000000000000000000000000000000000000000000000600052604160045260246000fd5b7f4e487b7100000000000000000000000000000000000000000000000000000000600052603260045260246000fd5b61233d81611e46565b82525050565b60006060820190506123586000830186612334565b6123656020830185612334565b6123726040830184611b03565b949350505050565b61238381611b59565b811461238e57600080fd5b50565b6000815190506123a08161237a565b92915050565b6000602082840312156123bc576123bb611c19565b5b60006123ca84828501612391565b91505092915050565b7f4e487b7100000000000000000000000000000000000000000000000000000000600052602260045260246000fd5b6000600282049050600182168061241a57607f821691505b60208210810361242d5761242c6123d3565b5b50919050565b600081905092915050565b600061244982611c7c565b6124538185612433565b9350612463818560208601611c98565b80840191505092915050565b60008190508160005260206000209050919050565b6000815461249181612402565b61249b8186612433565b945060018216600081146124b657600181146124c7576124fa565b60ff198316865281860193506124fa565b6124d08561246f565b60005b838110156124f2578154818901526001820191506020810190506124d3565b838801955050505b50505092915050565b600061250f828661243e565b915061251b828561243e565b91506125278284612484565b9150819050949350505050565b6000612540828461243e565b915081905092915050565b600061255682611af9565b915061256183611af9565b92508282101561257457612573612187565b5b828203905092915050565b60006020820190506125946000830184612334565b92915050565b6000815190506125a981611c23565b92915050565b6000602082840312156125c5576125c4611c19565b5b60006125d38482850161259a565b91505092915050565b60006125e782612139565b9050919050565b6125f7816125dc565b82525050565b600060408201905061261260008301856125ee565b61261f6020830184611b03565b9392505050565b7f74696d657374616d7020657863656564732065787069726174696f6e2064617460008201527f6500000000000000000000000000000000000000000000000000000000000000602082015250565b6000612682602183611c87565b915061268d82612626565b604082019050919050565b600060208201905081810360008301526126b181612675565b9050919050565b60006040820190506126cd6000830185612334565b6126da6020830184611b03565b9392505050565b7f4e487b7100000000000000000000000000000000000000000000000000000000600052601260045260246000fd5b600061271b82611af9565b915061272683611af9565b925082612736576127356126e1565b5b828204905092915050565b600061274c82611af9565b915061275783611af9565b925082612767576127666126e1565b5b828206905092915050565b600061277d82611af9565b915061278883611af9565b9250827fffffffffffffffffffffffffffffffffffffffffffffffffffffffffffffffff038211156127bd576127bc612187565b5b828201905092915050565b7f19457468657265756d205369676e6564204d6573736167653a0a333200000000600082015250565b60006127fe601c83612433565b9150612809826127c8565b601c82019050919050565b6000819050919050565b61282f61282a82611fa0565b612814565b82525050565b6000612840826127f1565b915061284c828461281e565b60208201915081905092915050565b7f4e487b7100000000000000000000000000000000000000000000000000000000600052602160045260246000fd5b7f45434453413a20696e76616c6964207369676e61747572650000000000000000600082015250565b60006128c0601883611c87565b91506128cb8261288a565b602082019050919050565b600060208201905081810360008301526128ef816128b3565b9050919050565b7f45434453413a20696e76616c6964207369676e6174757265206c656e67746800600082015250565b600061292c601f83611c87565b9150612937826128f6565b602082019050919050565b6000602082019050818103600083015261295b8161291f565b9050919050565b7f45434453413a20696e76616c6964207369676e6174757265202773272076616c60008201527f7565000000000000000000000000000000000000000000000000000000000000602082015250565b60006129be602283611c87565b91506129c982612962565b604082019050919050565b600060208201905081810360008301526129ed816129b1565b9050919050565b7f45434453413a20696e76616c6964207369676e6174757265202776272076616c60008201527f7565000000000000000000000000000000000000000000000000000000000000602082015250565b6000612a50602283611c87565b9150612a5b826129f4565b604082019050919050565b60006020820190508181036000830152612a7f81612a43565b9050919050565b612a8f81611fa0565b82525050565b600060ff82169050919050565b612aab81612a95565b82525050565b6000608082019050612ac66000830187612a86565b612ad36020830186612aa2565b612ae06040830185612a86565b612aed6060830184612a86565b9594505050505056fea2646970667358221220cce8034c8b914bedfc0edae7f27a703808a1735d11fdbcf111393080e5864e7864736f6c634300080d0033",
  "linkReferences": {},
  "deployedLinkReferences": {}
}